{
  "contractName": "Voting",
  "abi": [
    {
      "constant": true,
      "inputs": [
        {
          "name": "",
          "type": "bytes32"
        }
      ],
      "name": "votesReceived",
      "outputs": [
        {
          "name": "",
          "type": "uint8"
        }
      ],
      "payable": false,
      "stateMutability": "view",
      "type": "function"
    },
    {
      "constant": true,
      "inputs": [
        {
          "name": "",
          "type": "uint256"
        }
      ],
      "name": "candidateList",
      "outputs": [
        {
          "name": "",
          "type": "bytes32"
        }
      ],
      "payable": false,
      "stateMutability": "view",
      "type": "function"
    },
    {
      "inputs": [
        {
          "name": "candidateNames",
          "type": "bytes32[]"
        }
      ],
      "payable": false,
      "stateMutability": "nonpayable",
      "type": "constructor"
    },
    {
      "constant": true,
      "inputs": [
        {
          "name": "candidate",
          "type": "bytes32"
        }
      ],
      "name": "totalVotesFor",
      "outputs": [
        {
          "name": "",
          "type": "uint8"
        }
      ],
      "payable": false,
      "stateMutability": "view",
      "type": "function"
    },
    {
      "constant": false,
      "inputs": [
        {
          "name": "candidate",
          "type": "bytes32"
        }
      ],
      "name": "voteForCandidate",
      "outputs": [],
      "payable": false,
      "stateMutability": "nonpayable",
      "type": "function"
    },
    {
      "constant": true,
      "inputs": [
        {
          "name": "candidate",
          "type": "bytes32"
        }
      ],
      "name": "validCandidate",
      "outputs": [
        {
          "name": "",
          "type": "bool"
        }
      ],
      "payable": false,
      "stateMutability": "view",
      "type": "function"
    }
  ],
  "bytecode": "0x608060405234801561001057600080fd5b5060405161041d38038061041d833981018060405281019080805182019291905050508060019080519060200190610049929190610050565b50506100c8565b828054828255906000526020600020908101928215610092579160200282015b82811115610091578251829060001916905591602001919060010190610070565b5b50905061009f91906100a3565b5090565b6100c591905b808211156100c15760008160009055506001016100a9565b5090565b90565b610346806100d76000396000f30060806040526004361061006d576000357c0100000000000000000000000000000000000000000000000000000000900463ffffffff1680632f265cf714610072578063392e6678146100bd5780637021939f14610106578063b13c744b14610151578063cc9ab2671461019a575b600080fd5b34801561007e57600080fd5b506100a160048036038101908080356000191690602001909291905050506101cb565b604051808260ff1660ff16815260200191505060405180910390f35b3480156100c957600080fd5b506100ec6004803603810190808035600019169060200190929190505050610217565b604051808215151515815260200191505060405180910390f35b34801561011257600080fd5b506101356004803603810190808035600019169060200190929190505050610276565b604051808260ff1660ff16815260200191505060405180910390f35b34801561015d57600080fd5b5061017c60048036038101908080359060200190929190505050610296565b60405180826000191660001916815260200191505060405180910390f35b3480156101a657600080fd5b506101c960048036038101908080356000191690602001909291905050506102b9565b005b6000600115156101da83610217565b15151415156101e857600080fd5b600080836000191660001916815260200190815260200160002060009054906101000a900460ff169050919050565b600080600090505b60018054905081101561026b57826000191660018281548110151561024057fe5b906000526020600020015460001916141561025e5760019150610270565b808060010191505061021f565b600091505b50919050565b60006020528060005260406000206000915054906101000a900460ff1681565b6001818154811015156102a557fe5b906000526020600020016000915090505481565b600115156102c682610217565b15151415156102d157fe5b6001600080836000191660001916815260200190815260200160002060008282829054906101000a900460ff160192506101000a81548160ff021916908360ff160217905550505600a165627a7a723058207c55e797754d71642c942b06520178e317c1c0d6b830d037135c7875c513018f0029",
  "source": "pragma solidity ^0.4.4;\n\ncontract Voting {\n\n  // liyuechun -> 10\n  // xietingfeng -> 5\n  // liudehua -> 20\n  mapping (bytes32 => uint8) public votesReceived;\n\n\n  // 存储候选人名字的数组\n  bytes32[] public candidateList;\n\n\n  // 构造函数 初始化候选人名单\n  function Voting(bytes32[] candidateNames) {\n\n    candidateList = candidateNames;\n  }\n\n  // 查询某个候选人的总票数\n  function totalVotesFor(bytes32 candidate)  constant returns (uint8) {\n    require(validCandidate(candidate) == true);\n    // 或者\n    // assert(validCandidate(candidate) == true);\n    return votesReceived[candidate];\n  }\n\n  // 为某个候选人投票\n  function voteForCandidate(bytes32 candidate) {\n    assert(validCandidate(candidate) == true);\n    votesReceived[candidate] += 1;\n  }\n\n  // 检索投票的姓名是不是候选人的名字\n  function validCandidate(bytes32 candidate) constant returns (bool) {\n    for(uint i = 0; i < candidateList.length; i++) {\n      if (candidateList[i] == candidate) {\n        return true;\n      }\n    }\n    return false;\n  }\n}",
  "sourcePath": "/Users/nanfengpo/Projects/dapp/voting/contracts/Voting.sol",
  "compiler": {
    "name": "solc",
    "version": "0.4.24+commit.e67f0147.Emscripten.clang"
  },
  "schemaVersion": "2.0.1",
  "updatedAt": "2018-08-10T12:06:29.777Z"
}